{
  "_format": "hh-sol-artifact-1",
  "contractName": "SmartContractWalletFactory",
  "sourceName": "contracts/SmartWalletFactory.sol",
  "abi": [
    {
      "inputs": [
        {
          "internalType": "contract IEntryPoint",
          "name": "_entryPoint",
          "type": "address"
        }
      ],
      "stateMutability": "nonpayable",
      "type": "constructor"
    },
    {
      "inputs": [],
      "name": "accountImplementation",
      "outputs": [
        {
          "internalType": "contract SmartContractWallet",
          "name": "",
          "type": "address"
        }
      ],
      "stateMutability": "view",
      "type": "function"
    },
    {
      "inputs": [
        {
          "internalType": "uint256",
          "name": "",
          "type": "uint256"
        }
      ],
      "name": "allDeployedAddress",
      "outputs": [
        {
          "internalType": "address",
          "name": "",
          "type": "address"
        }
      ],
      "stateMutability": "view",
      "type": "function"
    },
    {
      "inputs": [
        {
          "internalType": "address",
          "name": "owner",
          "type": "address"
        },
        {
          "internalType": "uint256",
          "name": "salt",
          "type": "uint256"
        }
      ],
      "name": "createAccount",
      "outputs": [
        {
          "internalType": "contract SmartContractWallet",
          "name": "ret",
          "type": "address"
        }
      ],
      "stateMutability": "nonpayable",
      "type": "function"
    },
    {
      "inputs": [
        {
          "internalType": "address",
          "name": "",
          "type": "address"
        },
        {
          "internalType": "uint256",
          "name": "",
          "type": "uint256"
        }
      ],
      "name": "getAccountAddress",
      "outputs": [
        {
          "internalType": "address",
          "name": "",
          "type": "address"
        }
      ],
      "stateMutability": "view",
      "type": "function"
    },
    {
      "inputs": [
        {
          "internalType": "address",
          "name": "owner",
          "type": "address"
        },
        {
          "internalType": "uint256",
          "name": "salt",
          "type": "uint256"
        }
      ],
      "name": "getAddress",
      "outputs": [
        {
          "internalType": "address",
          "name": "",
          "type": "address"
        }
      ],
      "stateMutability": "view",
      "type": "function"
    },
    {
      "inputs": [
        {
          "internalType": "address",
          "name": "ownerAddress",
          "type": "address"
        }
      ],
      "name": "getAllAccountWithOwner",
      "outputs": [
        {
          "internalType": "address[]",
          "name": "",
          "type": "address[]"
        }
      ],
      "stateMutability": "view",
      "type": "function"
    }
  ],
  "bytecode": "0x60a06040523480156200001157600080fd5b506040516200371838038062003718833981810160405281019062000037919062000136565b806040516200004690620000aa565b620000529190620001d3565b604051809103906000f0801580156200006f573d6000803e3d6000fd5b5073ffffffffffffffffffffffffffffffffffffffff1660808173ffffffffffffffffffffffffffffffffffffffff168152505050620001f0565b61233680620013e283390190565b600080fd5b600073ffffffffffffffffffffffffffffffffffffffff82169050919050565b6000620000ea82620000bd565b9050919050565b6000620000fe82620000dd565b9050919050565b6200011081620000f1565b81146200011c57600080fd5b50565b600081519050620001308162000105565b92915050565b6000602082840312156200014f576200014e620000b8565b5b60006200015f848285016200011f565b91505092915050565b6000819050919050565b6000620001936200018d6200018784620000bd565b62000168565b620000bd565b9050919050565b6000620001a78262000172565b9050919050565b6000620001bb826200019a565b9050919050565b620001cd81620001ae565b82525050565b6000602082019050620001ea6000830184620001c2565b92915050565b6080516111c86200021a600039600081816101f00152818161025a015261051d01526111c86000f3fe60806040523480156200001157600080fd5b50600436106200006a5760003560e01c80630d253d76146200006f57806311464fbe14620000a55780635fbfb9cf14620000c7578063805d09ab14620000fd5780638cb84e181462000133578063f6d62ece1462000169575b600080fd5b6200008d600480360381019062000087919062000722565b6200019f565b6040516200009c91906200077a565b60405180910390f35b620000af620001ee565b604051620000be919062000802565b60405180910390f35b620000e56004803603810190620000df919062000722565b62000212565b604051620000f4919062000802565b60405180910390f35b6200011b60048036038101906200011591906200081f565b6200041c565b6040516200012a91906200091f565b60405180910390f35b6200015160048036038101906200014b919062000722565b620004eb565b6040516200016091906200077a565b60405180910390f35b62000187600480360381019062000181919062000943565b620005ed565b6040516200019691906200077a565b60405180910390f35b60016020528160005260406000208181548110620001bc57600080fd5b906000526020600020016000915091509054906101000a900473ffffffffffffffffffffffffffffffffffffffff1681565b7f000000000000000000000000000000000000000000000000000000000000000081565b600080620002218484620004eb565b905060008173ffffffffffffffffffffffffffffffffffffffff163b905060008111156200025457819250505062000416565b8360001b7f0000000000000000000000000000000000000000000000000000000000000000866040516024016200028c91906200077a565b60405160208183030381529060405263c4d66de860e01b6020820180517bffffffffffffffffffffffffffffffffffffffffffffffffffffffff8381831617835250505050604051620002df906200066f565b620002ec92919062000a0f565b8190604051809103906000f59050801580156200030d573d6000803e3d6000fd5b509250600160008673ffffffffffffffffffffffffffffffffffffffff1673ffffffffffffffffffffffffffffffffffffffff168152602001908152602001600020839080600181540180825580915050600190039060005260206000200160009091909190916101000a81548173ffffffffffffffffffffffffffffffffffffffff021916908373ffffffffffffffffffffffffffffffffffffffff1602179055506000839080600181540180825580915050600190039060005260206000200160009091909190916101000a81548173ffffffffffffffffffffffffffffffffffffffff021916908373ffffffffffffffffffffffffffffffffffffffff16021790555050505b92915050565b6060600160008373ffffffffffffffffffffffffffffffffffffffff1673ffffffffffffffffffffffffffffffffffffffff168152602001908152602001600020805480602002602001604051908101604052809291908181526020018280548015620004df57602002820191906000526020600020905b8160009054906101000a900473ffffffffffffffffffffffffffffffffffffffff1673ffffffffffffffffffffffffffffffffffffffff168152602001906001019080831162000494575b50505050509050919050565b6000620005e58260001b6040518060200162000507906200066f565b6020820181038252601f19601f820116604052507f0000000000000000000000000000000000000000000000000000000000000000866040516024016200054f91906200077a565b60405160208183030381529060405263c4d66de860e01b6020820180517bffffffffffffffffffffffffffffffffffffffffffffffffffffffff8381831617835250505050604051602001620005a792919062000a0f565b604051602081830303815290604052604051602001620005c992919062000a85565b604051602081830303815290604052805190602001206200062d565b905092915050565b60008181548110620005fe57600080fd5b906000526020600020016000915054906101000a900473ffffffffffffffffffffffffffffffffffffffff1681565b60006200063c83833062000644565b905092915050565b6000604051836040820152846020820152828152600b810160ff815360558120925050509392505050565b6106e58062000aae83390190565b600080fd5b600073ffffffffffffffffffffffffffffffffffffffff82169050919050565b6000620006af8262000682565b9050919050565b620006c181620006a2565b8114620006cd57600080fd5b50565b600081359050620006e181620006b6565b92915050565b6000819050919050565b620006fc81620006e7565b81146200070857600080fd5b50565b6000813590506200071c81620006f1565b92915050565b600080604083850312156200073c576200073b6200067d565b5b60006200074c85828601620006d0565b92505060206200075f858286016200070b565b9150509250929050565b6200077481620006a2565b82525050565b600060208201905062000791600083018462000769565b92915050565b6000819050919050565b6000620007c2620007bc620007b68462000682565b62000797565b62000682565b9050919050565b6000620007d682620007a1565b9050919050565b6000620007ea82620007c9565b9050919050565b620007fc81620007dd565b82525050565b6000602082019050620008196000830184620007f1565b92915050565b6000602082840312156200083857620008376200067d565b5b60006200084884828501620006d0565b91505092915050565b600081519050919050565b600082825260208201905092915050565b6000819050602082019050919050565b6200088881620006a2565b82525050565b60006200089c83836200087d565b60208301905092915050565b6000602082019050919050565b6000620008c28262000851565b620008ce81856200085c565b9350620008db836200086d565b8060005b8381101562000912578151620008f688826200088e565b97506200090383620008a8565b925050600181019050620008df565b5085935050505092915050565b600060208201905081810360008301526200093b8184620008b5565b905092915050565b6000602082840312156200095c576200095b6200067d565b5b60006200096c848285016200070b565b91505092915050565b600081519050919050565b600082825260208201905092915050565b60005b83811015620009b157808201518184015260208101905062000994565b60008484015250505050565b6000601f19601f8301169050919050565b6000620009db8262000975565b620009e7818562000980565b9350620009f981856020860162000991565b62000a0481620009bd565b840191505092915050565b600060408201905062000a26600083018562000769565b818103602083015262000a3a8184620009ce565b90509392505050565b600081905092915050565b600062000a5b8262000975565b62000a67818562000a43565b935062000a7981856020860162000991565b80840191505092915050565b600062000a93828562000a4e565b915062000aa1828462000a4e565b9150819050939250505056fe60806040526040516106e53803806106e583398181016040528101906100259190610512565b610035828261003c60201b60201c565b50506105f6565b61004b826100c160201b60201c565b8173ffffffffffffffffffffffffffffffffffffffff167fbc7cd75a20ee27fd9adebab32041f755214dbc6bffa90cc0225b39da2e5c2d3b60405160405180910390a26000815111156100ae576100a8828261019460201b60201c565b506100bd565b6100bc61021e60201b60201c565b5b5050565b60008173ffffffffffffffffffffffffffffffffffffffff163b0361011d57806040517f4c9c8ce3000000000000000000000000000000000000000000000000000000008152600401610114919061057d565b60405180910390fd5b806101507f360894a13ba1a3210667c828492db98dca3e2076cc3735a920a3ca505d382bbc60001b61025b60201b60201c565b60000160006101000a81548173ffffffffffffffffffffffffffffffffffffffff021916908373ffffffffffffffffffffffffffffffffffffffff16021790555050565b60606000808473ffffffffffffffffffffffffffffffffffffffff16846040516101be91906105df565b600060405180830381855af49150503d80600081146101f9576040519150601f19603f3d011682016040523d82523d6000602084013e6101fe565b606091505b509150915061021485838361026560201b60201c565b9250505092915050565b6000341115610259576040517fb398979f00000000000000000000000000000000000000000000000000000000815260040160405180910390fd5b565b6000819050919050565b6060826102805761027b826102fa60201b60201c565b6102f2565b600082511480156102a8575060008473ffffffffffffffffffffffffffffffffffffffff163b145b156102ea57836040517f9996b3150000000000000000000000000000000000000000000000000000000081526004016102e1919061057d565b60405180910390fd5b8190506102f3565b5b9392505050565b60008151111561030d5780518082602001fd5b6040517f1425ea4200000000000000000000000000000000000000000000000000000000815260040160405180910390fd5b6000604051905090565b600080fd5b600080fd5b600073ffffffffffffffffffffffffffffffffffffffff82169050919050565b600061037e82610353565b9050919050565b61038e81610373565b811461039957600080fd5b50565b6000815190506103ab81610385565b92915050565b600080fd5b600080fd5b6000601f19601f8301169050919050565b7f4e487b7100000000000000000000000000000000000000000000000000000000600052604160045260246000fd5b610404826103bb565b810181811067ffffffffffffffff82111715610423576104226103cc565b5b80604052505050565b600061043661033f565b905061044282826103fb565b919050565b600067ffffffffffffffff821115610462576104616103cc565b5b61046b826103bb565b9050602081019050919050565b60005b8381101561049657808201518184015260208101905061047b565b60008484015250505050565b60006104b56104b084610447565b61042c565b9050828152602081018484840111156104d1576104d06103b6565b5b6104dc848285610478565b509392505050565b600082601f8301126104f9576104f86103b1565b5b81516105098482602086016104a2565b91505092915050565b6000806040838503121561052957610528610349565b5b60006105378582860161039c565b925050602083015167ffffffffffffffff8111156105585761055761034e565b5b610564858286016104e4565b9150509250929050565b61057781610373565b82525050565b6000602082019050610592600083018461056e565b92915050565b600081519050919050565b600081905092915050565b60006105b982610598565b6105c381856105a3565b93506105d3818560208601610478565b80840191505092915050565b60006105eb82846105ae565b915081905092915050565b60e1806106046000396000f3fe6080604052600a600c565b005b60186014601a565b6027565b565b60006022604c565b905090565b3660008037600080366000845af43d6000803e80600081146047573d6000f35b3d6000fd5b600060787f360894a13ba1a3210667c828492db98dca3e2076cc3735a920a3ca505d382bbc60001b60a1565b60000160009054906101000a900473ffffffffffffffffffffffffffffffffffffffff16905090565b600081905091905056fea2646970667358221220efb0453644e06fc30c00e319e2a4f2c1a809d39eca9642ae9d97060ab802f30a64736f6c63430008180033a264697066735822122040f6e4c153d5897c4c6895e0bcac45af7fe56e054d96e04ddc3378a0a2d60ca864736f6c6343000818003360c06040523073ffffffffffffffffffffffffffffffffffffffff1660809073ffffffffffffffffffffffffffffffffffffffff168152503480156200004457600080fd5b50604051620023363803806200233683398181016040528101906200006a919062000265565b8073ffffffffffffffffffffffffffffffffffffffff1660a08173ffffffffffffffffffffffffffffffffffffffff1681525050620000ae620000b560201b60201c565b50620002d9565b6000620000c7620001bf60201b60201c565b90508060000160089054906101000a900460ff161562000113576040517ff92ee8a900000000000000000000000000000000000000000000000000000000815260040160405180910390fd5b67ffffffffffffffff80168160000160009054906101000a900467ffffffffffffffff1667ffffffffffffffff1614620001bc5767ffffffffffffffff8160000160006101000a81548167ffffffffffffffff021916908367ffffffffffffffff1602179055507fc7f505b2f371ae2175ee4913f4499e1f2633a7b5936321eed1cdaeb6115181d267ffffffffffffffff604051620001b39190620002bc565b60405180910390a15b50565b60007ff0c57e16840df040f15088dc2f81fe391c3923bec73e23a9662efc9c229c6a00905090565b600080fd5b600073ffffffffffffffffffffffffffffffffffffffff82169050919050565b60006200021982620001ec565b9050919050565b60006200022d826200020c565b9050919050565b6200023f8162000220565b81146200024b57600080fd5b50565b6000815190506200025f8162000234565b92915050565b6000602082840312156200027e576200027d620001e7565b5b60006200028e848285016200024e565b91505092915050565b600067ffffffffffffffff82169050919050565b620002b68162000297565b82525050565b6000602082019050620002d36000830184620002ab565b92915050565b60805160a05161202262000314600039600081816104d30152610d91015260008181610a5b01528181610ab00152610c6b01526120226000f3fe6080604052600436106100c65760003560e01c80638da5cb5b1161007f578063c4d66de811610059578063c4d66de814610254578063c71daccb1461027d578063d087d288146102a8578063faec4db4146102d3576100cd565b80638da5cb5b146101d3578063ad3cb1cc146101fe578063b0d691fe14610229576100cd565b80631256fa53146100d257806319822f7c146100fd578063290bb4531461013a5780632ccb1b30146101635780634f1ef2861461018c57806352d1902d146101a8576100cd565b366100cd57005b600080fd5b3480156100de57600080fd5b506100e76102fc565b6040516100f491906114fc565b60405180910390f35b34801561010957600080fd5b50610124600480360381019061011f91906115bc565b610304565b604051610131919061163a565b60405180910390f35b34801561014657600080fd5b50610161600480360381019061015c919061179b565b610337565b005b34801561016f57600080fd5b5061018a60048036038101906101859190611810565b61036f565b005b6101a660048036038101906101a191906118f1565b610420565b005b3480156101b457600080fd5b506101bd61043f565b6040516101ca919061195c565b60405180910390f35b3480156101df57600080fd5b506101e8610472565b6040516101f591906114fc565b60405180910390f35b34801561020a57600080fd5b50610213610496565b60405161022091906119f6565b60405180910390f35b34801561023557600080fd5b5061023e6104cf565b60405161024b9190611a77565b60405180910390f35b34801561026057600080fd5b5061027b60048036038101906102769190611a92565b6104f7565b005b34801561028957600080fd5b50610292610686565b60405161029f919061163a565b60405180910390f35b3480156102b457600080fd5b506102bd61068e565b6040516102ca919061163a565b60405180910390f35b3480156102df57600080fd5b506102fa60048036038101906102f5919061179b565b610719565b005b600030905090565b600061030e6107aa565b6103188484610821565b905061032784602001356108f4565b610330826108f7565b9392505050565b61033f610993565b8060405160200161035091906119f6565b6040516020818303038152906040528051906020012060018190555050565b60008273ffffffffffffffffffffffffffffffffffffffff168260405161039590611af0565b60006040518083038185875af1925050503d80600081146103d2576040519150601f19603f3d011682016040523d82523d6000602084013e6103d7565b606091505b505090508061041b576040517f08c379a000000000000000000000000000000000000000000000000000000000815260040161041290611b51565b60405180910390fd5b505050565b610428610a59565b61043182610b3f565b61043b8282610b4a565b5050565b6000610449610c69565b7f360894a13ba1a3210667c828492db98dca3e2076cc3735a920a3ca505d382bbc60001b905090565b60008054906101000a900473ffffffffffffffffffffffffffffffffffffffff1681565b6040518060400160405280600581526020017f352e302e3000000000000000000000000000000000000000000000000000000081525081565b60007f0000000000000000000000000000000000000000000000000000000000000000905090565b6000610501610cf0565b905060008160000160089054906101000a900460ff1615905060008260000160009054906101000a900467ffffffffffffffff1690506000808267ffffffffffffffff1614801561054f5750825b9050600060018367ffffffffffffffff16148015610584575060003073ffffffffffffffffffffffffffffffffffffffff163b145b905081158015610592575080155b156105c9576040517ff92ee8a900000000000000000000000000000000000000000000000000000000815260040160405180910390fd5b60018560000160006101000a81548167ffffffffffffffff021916908367ffffffffffffffff16021790555083156106195760018560000160086101000a81548160ff0219169083151502179055505b61062286610d18565b831561067e5760008560000160086101000a81548160ff0219169083151502179055507fc7f505b2f371ae2175ee4913f4499e1f2633a7b5936321eed1cdaeb6115181d260016040516106759190611bc0565b60405180910390a15b505050505050565b600047905090565b60006106986104cf565b73ffffffffffffffffffffffffffffffffffffffff166335567e1a3060006040518363ffffffff1660e01b81526004016106d3929190611c3a565b602060405180830381865afa1580156106f0573d6000803e3d6000fd5b505050506040513d601f19601f820116820180604052508101906107149190611c78565b905090565b600061072482610df5565b905080610766576040517f08c379a000000000000000000000000000000000000000000000000000000000815260040161075d90611cf1565b60405180910390fd5b336000806101000a81548173ffffffffffffffffffffffffffffffffffffffff021916908373ffffffffffffffffffffffffffffffffffffffff1602179055505050565b6107b26104cf565b73ffffffffffffffffffffffffffffffffffffffff163373ffffffffffffffffffffffffffffffffffffffff161461081f576040517f08c379a000000000000000000000000000000000000000000000000000000000815260040161081690611d5d565b60405180910390fd5b565b60008061082d83610e6f565b905061088c81858061010001906108449190611d8c565b8080601f016020809104026020016040519081016040528093929190818152602001838380828437600081840152601f19601f82011690508083019250505050505050610ea5565b73ffffffffffffffffffffffffffffffffffffffff1660008054906101000a900473ffffffffffffffffffffffffffffffffffffffff1673ffffffffffffffffffffffffffffffffffffffff16146108e85760019150506108ee565b60009150505b92915050565b50565b600081146109905760003373ffffffffffffffffffffffffffffffffffffffff16827fffffffffffffffffffffffffffffffffffffffffffffffffffffffffffffffff9060405161094790611af0565b600060405180830381858888f193505050503d8060008114610985576040519150601f19603f3d011682016040523d82523d6000602084013e61098a565b606091505b50509050505b50565b60008054906101000a900473ffffffffffffffffffffffffffffffffffffffff1673ffffffffffffffffffffffffffffffffffffffff163373ffffffffffffffffffffffffffffffffffffffff161480610a1857503073ffffffffffffffffffffffffffffffffffffffff163373ffffffffffffffffffffffffffffffffffffffff16145b610a57576040517f08c379a0000000000000000000000000000000000000000000000000000000008152600401610a4e90611e3b565b60405180910390fd5b565b7f000000000000000000000000000000000000000000000000000000000000000073ffffffffffffffffffffffffffffffffffffffff163073ffffffffffffffffffffffffffffffffffffffff161480610b0657507f000000000000000000000000000000000000000000000000000000000000000073ffffffffffffffffffffffffffffffffffffffff16610aed610ed1565b73ffffffffffffffffffffffffffffffffffffffff1614155b15610b3d576040517fe07c8dba00000000000000000000000000000000000000000000000000000000815260040160405180910390fd5b565b610b47610993565b50565b8173ffffffffffffffffffffffffffffffffffffffff166352d1902d6040518163ffffffff1660e01b8152600401602060405180830381865afa925050508015610bb257506040513d601f19601f82011682018060405250810190610baf9190611e70565b60015b610bf357816040517f4c9c8ce3000000000000000000000000000000000000000000000000000000008152600401610bea91906114fc565b60405180910390fd5b7f360894a13ba1a3210667c828492db98dca3e2076cc3735a920a3ca505d382bbc60001b8114610c5a57806040517faa1d49a4000000000000000000000000000000000000000000000000000000008152600401610c51919061195c565b60405180910390fd5b610c648383610f28565b505050565b7f000000000000000000000000000000000000000000000000000000000000000073ffffffffffffffffffffffffffffffffffffffff163073ffffffffffffffffffffffffffffffffffffffff1614610cee576040517fe07c8dba00000000000000000000000000000000000000000000000000000000815260040160405180910390fd5b565b60007ff0c57e16840df040f15088dc2f81fe391c3923bec73e23a9662efc9c229c6a00905090565b806000806101000a81548173ffffffffffffffffffffffffffffffffffffffff021916908373ffffffffffffffffffffffffffffffffffffffff16021790555060008054906101000a900473ffffffffffffffffffffffffffffffffffffffff1673ffffffffffffffffffffffffffffffffffffffff167f000000000000000000000000000000000000000000000000000000000000000073ffffffffffffffffffffffffffffffffffffffff167f47e55c76e7a6f1fd8996a1da8008c1ea29699cca35e7bcd057f2dec313b6e5de60405160405180910390a350565b60008082604051602001610e0991906119f6565b6040516020818303038152906040528051906020012090506001548114610e65576040517f08c379a0000000000000000000000000000000000000000000000000000000008152600401610e5c90611ee9565b60405180910390fd5b6001915050919050565b60007f19457468657265756d205369676e6564204d6573736167653a0a33320000000060005281601c52603c6000209050919050565b600080600080610eb58686610f9b565b925092509250610ec58282610ff7565b82935050505092915050565b6000610eff7f360894a13ba1a3210667c828492db98dca3e2076cc3735a920a3ca505d382bbc60001b61115b565b60000160009054906101000a900473ffffffffffffffffffffffffffffffffffffffff16905090565b610f3182611165565b8173ffffffffffffffffffffffffffffffffffffffff167fbc7cd75a20ee27fd9adebab32041f755214dbc6bffa90cc0225b39da2e5c2d3b60405160405180910390a2600081511115610f8e57610f888282611232565b50610f97565b610f966112b6565b5b5050565b60008060006041845103610fe05760008060006020870151925060408701519150606087015160001a9050610fd2888285856112f3565b955095509550505050610ff0565b60006002855160001b9250925092505b9250925092565b6000600381111561100b5761100a611f09565b5b82600381111561101e5761101d611f09565b5b0315611157576001600381111561103857611037611f09565b5b82600381111561104b5761104a611f09565b5b03611082576040517ff645eedf00000000000000000000000000000000000000000000000000000000815260040160405180910390fd5b6002600381111561109657611095611f09565b5b8260038111156110a9576110a8611f09565b5b036110ee578060001c6040517ffce698f70000000000000000000000000000000000000000000000000000000081526004016110e5919061163a565b60405180910390fd5b60038081111561110157611100611f09565b5b82600381111561111457611113611f09565b5b0361115657806040517fd78bce0c00000000000000000000000000000000000000000000000000000000815260040161114d919061195c565b60405180910390fd5b5b5050565b6000819050919050565b60008173ffffffffffffffffffffffffffffffffffffffff163b036111c157806040517f4c9c8ce30000000000000000000000000000000000000000000000000000000081526004016111b891906114fc565b60405180910390fd5b806111ee7f360894a13ba1a3210667c828492db98dca3e2076cc3735a920a3ca505d382bbc60001b61115b565b60000160006101000a81548173ffffffffffffffffffffffffffffffffffffffff021916908373ffffffffffffffffffffffffffffffffffffffff16021790555050565b60606000808473ffffffffffffffffffffffffffffffffffffffff168460405161125c9190611f74565b600060405180830381855af49150503d8060008114611297576040519150601f19603f3d011682016040523d82523d6000602084013e61129c565b606091505b50915091506112ac8583836113e7565b9250505092915050565b60003411156112f1576040517fb398979f00000000000000000000000000000000000000000000000000000000815260040160405180910390fd5b565b60008060007f7fffffffffffffffffffffffffffffff5d576e7357a4501ddfe92f46681b20a08460001c11156113335760006003859250925092506113dd565b6000600188888888604051600081526020016040526040516113589493929190611fa7565b6020604051602081039080840390855afa15801561137a573d6000803e3d6000fd5b505050602060405103519050600073ffffffffffffffffffffffffffffffffffffffff168173ffffffffffffffffffffffffffffffffffffffff16036113ce57600060016000801b935093509350506113dd565b8060008060001b935093509350505b9450945094915050565b6060826113fc576113f782611476565b61146e565b60008251148015611424575060008473ffffffffffffffffffffffffffffffffffffffff163b145b1561146657836040517f9996b31500000000000000000000000000000000000000000000000000000000815260040161145d91906114fc565b60405180910390fd5b81905061146f565b5b9392505050565b6000815111156114895780518082602001fd5b6040517f1425ea4200000000000000000000000000000000000000000000000000000000815260040160405180910390fd5b600073ffffffffffffffffffffffffffffffffffffffff82169050919050565b60006114e6826114bb565b9050919050565b6114f6816114db565b82525050565b600060208201905061151160008301846114ed565b92915050565b6000604051905090565b600080fd5b600080fd5b600080fd5b600061012082840312156115475761154661152b565b5b81905092915050565b6000819050919050565b61156381611550565b811461156e57600080fd5b50565b6000813590506115808161155a565b92915050565b6000819050919050565b61159981611586565b81146115a457600080fd5b50565b6000813590506115b681611590565b92915050565b6000806000606084860312156115d5576115d4611521565b5b600084013567ffffffffffffffff8111156115f3576115f2611526565b5b6115ff86828701611530565b935050602061161086828701611571565b9250506040611621868287016115a7565b9150509250925092565b61163481611586565b82525050565b600060208201905061164f600083018461162b565b92915050565b600080fd5b600080fd5b6000601f19601f8301169050919050565b7f4e487b7100000000000000000000000000000000000000000000000000000000600052604160045260246000fd5b6116a88261165f565b810181811067ffffffffffffffff821117156116c7576116c6611670565b5b80604052505050565b60006116da611517565b90506116e6828261169f565b919050565b600067ffffffffffffffff82111561170657611705611670565b5b61170f8261165f565b9050602081019050919050565b82818337600083830152505050565b600061173e611739846116eb565b6116d0565b90508281526020810184848401111561175a5761175961165a565b5b61176584828561171c565b509392505050565b600082601f83011261178257611781611655565b5b813561179284826020860161172b565b91505092915050565b6000602082840312156117b1576117b0611521565b5b600082013567ffffffffffffffff8111156117cf576117ce611526565b5b6117db8482850161176d565b91505092915050565b6117ed816114db565b81146117f857600080fd5b50565b60008135905061180a816117e4565b92915050565b6000806040838503121561182757611826611521565b5b6000611835858286016117fb565b9250506020611846858286016115a7565b9150509250929050565b600067ffffffffffffffff82111561186b5761186a611670565b5b6118748261165f565b9050602081019050919050565b600061189461188f84611850565b6116d0565b9050828152602081018484840111156118b0576118af61165a565b5b6118bb84828561171c565b509392505050565b600082601f8301126118d8576118d7611655565b5b81356118e8848260208601611881565b91505092915050565b6000806040838503121561190857611907611521565b5b6000611916858286016117fb565b925050602083013567ffffffffffffffff81111561193757611936611526565b5b611943858286016118c3565b9150509250929050565b61195681611550565b82525050565b6000602082019050611971600083018461194d565b92915050565b600081519050919050565b600082825260208201905092915050565b60005b838110156119b1578082015181840152602081019050611996565b60008484015250505050565b60006119c882611977565b6119d28185611982565b93506119e2818560208601611993565b6119eb8161165f565b840191505092915050565b60006020820190508181036000830152611a1081846119bd565b905092915050565b6000819050919050565b6000611a3d611a38611a33846114bb565b611a18565b6114bb565b9050919050565b6000611a4f82611a22565b9050919050565b6000611a6182611a44565b9050919050565b611a7181611a56565b82525050565b6000602082019050611a8c6000830184611a68565b92915050565b600060208284031215611aa857611aa7611521565b5b6000611ab6848285016117fb565b91505092915050565b600081905092915050565b50565b6000611ada600083611abf565b9150611ae582611aca565b600082019050919050565b6000611afb82611acd565b9150819050919050565b7f5472616e7366657220756e7375636365737366756c6c00000000000000000000600082015250565b6000611b3b601683611982565b9150611b4682611b05565b602082019050919050565b60006020820190508181036000830152611b6a81611b2e565b9050919050565b6000819050919050565b600067ffffffffffffffff82169050919050565b6000611baa611ba5611ba084611b71565b611a18565b611b7b565b9050919050565b611bba81611b8f565b82525050565b6000602082019050611bd56000830184611bb1565b92915050565b6000819050919050565b600077ffffffffffffffffffffffffffffffffffffffffffffffff82169050919050565b6000611c24611c1f611c1a84611bdb565b611a18565b611be5565b9050919050565b611c3481611c09565b82525050565b6000604082019050611c4f60008301856114ed565b611c5c6020830184611c2b565b9392505050565b600081519050611c7281611590565b92915050565b600060208284031215611c8e57611c8d611521565b5b6000611c9c84828501611c63565b91505092915050565b7f596f7520617265206e6f7420617574686f72697a656400000000000000000000600082015250565b6000611cdb601683611982565b9150611ce682611ca5565b602082019050919050565b60006020820190508181036000830152611d0a81611cce565b9050919050565b7f6163636f756e743a206e6f742066726f6d20456e747279506f696e7400000000600082015250565b6000611d47601c83611982565b9150611d5282611d11565b602082019050919050565b60006020820190508181036000830152611d7681611d3a565b9050919050565b600080fd5b600080fd5b600080fd5b60008083356001602003843603038112611da957611da8611d7d565b5b80840192508235915067ffffffffffffffff821115611dcb57611dca611d82565b5b602083019250600182023603831315611de757611de6611d87565b5b509250929050565b7f6f6e6c79206f776e657200000000000000000000000000000000000000000000600082015250565b6000611e25600a83611982565b9150611e3082611def565b602082019050919050565b60006020820190508181036000830152611e5481611e18565b9050919050565b600081519050611e6a8161155a565b92915050565b600060208284031215611e8657611e85611521565b5b6000611e9484828501611e5b565b91505092915050565b7f596f7520617265206e6f7420746865206f776e65720000000000000000000000600082015250565b6000611ed3601583611982565b9150611ede82611e9d565b602082019050919050565b60006020820190508181036000830152611f0281611ec6565b9050919050565b7f4e487b7100000000000000000000000000000000000000000000000000000000600052602160045260246000fd5b600081519050919050565b6000611f4e82611f38565b611f588185611abf565b9350611f68818560208601611993565b80840191505092915050565b6000611f808284611f43565b915081905092915050565b600060ff82169050919050565b611fa181611f8b565b82525050565b6000608082019050611fbc600083018761194d565b611fc96020830186611f98565b611fd6604083018561194d565b611fe3606083018461194d565b9594505050505056fea264697066735822122098709a8e0915204d1ca3028fe9038836f4161e75731bb0fef5865ddeeb486ca664736f6c63430008180033",
  "linkReferences": {},
  "deployedLinkReferences": {}
}