{
  "_format": "hh-sol-artifact-1",
  "contractName": "SmartContractWallet",
  "sourceName": "contracts/SmartContractWallet.sol",
  "abi": [
    {
      "inputs": [
        {
          "internalType": "contract IEntryPoint",
          "name": "anEntryPoint",
          "type": "address"
        }
      ],
      "stateMutability": "nonpayable",
      "type": "constructor"
    },
    {
      "inputs": [
        {
          "internalType": "address",
          "name": "target",
          "type": "address"
        }
      ],
      "name": "AddressEmptyCode",
      "type": "error"
    },
    {
      "inputs": [],
      "name": "ECDSAInvalidSignature",
      "type": "error"
    },
    {
      "inputs": [
        {
          "internalType": "uint256",
          "name": "length",
          "type": "uint256"
        }
      ],
      "name": "ECDSAInvalidSignatureLength",
      "type": "error"
    },
    {
      "inputs": [
        {
          "internalType": "bytes32",
          "name": "s",
          "type": "bytes32"
        }
      ],
      "name": "ECDSAInvalidSignatureS",
      "type": "error"
    },
    {
      "inputs": [
        {
          "internalType": "address",
          "name": "implementation",
          "type": "address"
        }
      ],
      "name": "ERC1967InvalidImplementation",
      "type": "error"
    },
    {
      "inputs": [],
      "name": "ERC1967NonPayable",
      "type": "error"
    },
    {
      "inputs": [],
      "name": "FailedInnerCall",
      "type": "error"
    },
    {
      "inputs": [],
      "name": "InvalidInitialization",
      "type": "error"
    },
    {
      "inputs": [],
      "name": "NotInitializing",
      "type": "error"
    },
    {
      "inputs": [],
      "name": "UUPSUnauthorizedCallContext",
      "type": "error"
    },
    {
      "inputs": [
        {
          "internalType": "bytes32",
          "name": "slot",
          "type": "bytes32"
        }
      ],
      "name": "UUPSUnsupportedProxiableUUID",
      "type": "error"
    },
    {
      "anonymous": false,
      "inputs": [
        {
          "indexed": false,
          "internalType": "uint64",
          "name": "version",
          "type": "uint64"
        }
      ],
      "name": "Initialized",
      "type": "event"
    },
    {
      "anonymous": false,
      "inputs": [
        {
          "indexed": true,
          "internalType": "contract IEntryPoint",
          "name": "entryPoint",
          "type": "address"
        },
        {
          "indexed": true,
          "internalType": "address",
          "name": "owner",
          "type": "address"
        }
      ],
      "name": "SimpleAccountInitialized",
      "type": "event"
    },
    {
      "anonymous": false,
      "inputs": [
        {
          "indexed": true,
          "internalType": "address",
          "name": "implementation",
          "type": "address"
        }
      ],
      "name": "Upgraded",
      "type": "event"
    },
    {
      "inputs": [],
      "name": "UPGRADE_INTERFACE_VERSION",
      "outputs": [
        {
          "internalType": "string",
          "name": "",
          "type": "string"
        }
      ],
      "stateMutability": "view",
      "type": "function"
    },
    {
      "inputs": [
        {
          "internalType": "string",
          "name": "_password",
          "type": "string"
        }
      ],
      "name": "changeOwner",
      "outputs": [],
      "stateMutability": "nonpayable",
      "type": "function"
    },
    {
      "inputs": [],
      "name": "checkAddress",
      "outputs": [
        {
          "internalType": "address",
          "name": "",
          "type": "address"
        }
      ],
      "stateMutability": "view",
      "type": "function"
    },
    {
      "inputs": [],
      "name": "checkBalance",
      "outputs": [
        {
          "internalType": "uint256",
          "name": "",
          "type": "uint256"
        }
      ],
      "stateMutability": "view",
      "type": "function"
    },
    {
      "inputs": [],
      "name": "entryPoint",
      "outputs": [
        {
          "internalType": "contract IEntryPoint",
          "name": "",
          "type": "address"
        }
      ],
      "stateMutability": "view",
      "type": "function"
    },
    {
      "inputs": [],
      "name": "getNonce",
      "outputs": [
        {
          "internalType": "uint256",
          "name": "",
          "type": "uint256"
        }
      ],
      "stateMutability": "view",
      "type": "function"
    },
    {
      "inputs": [
        {
          "internalType": "address",
          "name": "anOwner",
          "type": "address"
        }
      ],
      "name": "initialize",
      "outputs": [],
      "stateMutability": "nonpayable",
      "type": "function"
    },
    {
      "inputs": [],
      "name": "owner",
      "outputs": [
        {
          "internalType": "address",
          "name": "",
          "type": "address"
        }
      ],
      "stateMutability": "view",
      "type": "function"
    },
    {
      "inputs": [],
      "name": "proxiableUUID",
      "outputs": [
        {
          "internalType": "bytes32",
          "name": "",
          "type": "bytes32"
        }
      ],
      "stateMutability": "view",
      "type": "function"
    },
    {
      "inputs": [
        {
          "internalType": "string",
          "name": "_password",
          "type": "string"
        }
      ],
      "name": "setPassword",
      "outputs": [],
      "stateMutability": "nonpayable",
      "type": "function"
    },
    {
      "inputs": [
        {
          "internalType": "address",
          "name": "_transferTo",
          "type": "address"
        },
        {
          "internalType": "uint256",
          "name": "amount",
          "type": "uint256"
        }
      ],
      "name": "transferTo",
      "outputs": [],
      "stateMutability": "nonpayable",
      "type": "function"
    },
    {
      "inputs": [
        {
          "internalType": "address",
          "name": "newImplementation",
          "type": "address"
        },
        {
          "internalType": "bytes",
          "name": "data",
          "type": "bytes"
        }
      ],
      "name": "upgradeToAndCall",
      "outputs": [],
      "stateMutability": "payable",
      "type": "function"
    },
    {
      "inputs": [
        {
          "components": [
            {
              "internalType": "address",
              "name": "sender",
              "type": "address"
            },
            {
              "internalType": "uint256",
              "name": "nonce",
              "type": "uint256"
            },
            {
              "internalType": "bytes",
              "name": "initCode",
              "type": "bytes"
            },
            {
              "internalType": "bytes",
              "name": "callData",
              "type": "bytes"
            },
            {
              "internalType": "bytes32",
              "name": "accountGasLimits",
              "type": "bytes32"
            },
            {
              "internalType": "uint256",
              "name": "preVerificationGas",
              "type": "uint256"
            },
            {
              "internalType": "bytes32",
              "name": "gasFees",
              "type": "bytes32"
            },
            {
              "internalType": "bytes",
              "name": "paymasterAndData",
              "type": "bytes"
            },
            {
              "internalType": "bytes",
              "name": "signature",
              "type": "bytes"
            }
          ],
          "internalType": "struct PackedUserOperation",
          "name": "userOp",
          "type": "tuple"
        },
        {
          "internalType": "bytes32",
          "name": "userOpHash",
          "type": "bytes32"
        },
        {
          "internalType": "uint256",
          "name": "missingAccountFunds",
          "type": "uint256"
        }
      ],
      "name": "validateUserOp",
      "outputs": [
        {
          "internalType": "uint256",
          "name": "validationData",
          "type": "uint256"
        }
      ],
      "stateMutability": "nonpayable",
      "type": "function"
    },
    {
      "stateMutability": "payable",
      "type": "receive"
    }
  ],
  "bytecode": "0x60c06040523073ffffffffffffffffffffffffffffffffffffffff1660809073ffffffffffffffffffffffffffffffffffffffff168152503480156200004457600080fd5b50604051620023363803806200233683398181016040528101906200006a919062000265565b8073ffffffffffffffffffffffffffffffffffffffff1660a08173ffffffffffffffffffffffffffffffffffffffff1681525050620000ae620000b560201b60201c565b50620002d9565b6000620000c7620001bf60201b60201c565b90508060000160089054906101000a900460ff161562000113576040517ff92ee8a900000000000000000000000000000000000000000000000000000000815260040160405180910390fd5b67ffffffffffffffff80168160000160009054906101000a900467ffffffffffffffff1667ffffffffffffffff1614620001bc5767ffffffffffffffff8160000160006101000a81548167ffffffffffffffff021916908367ffffffffffffffff1602179055507fc7f505b2f371ae2175ee4913f4499e1f2633a7b5936321eed1cdaeb6115181d267ffffffffffffffff604051620001b39190620002bc565b60405180910390a15b50565b60007ff0c57e16840df040f15088dc2f81fe391c3923bec73e23a9662efc9c229c6a00905090565b600080fd5b600073ffffffffffffffffffffffffffffffffffffffff82169050919050565b60006200021982620001ec565b9050919050565b60006200022d826200020c565b9050919050565b6200023f8162000220565b81146200024b57600080fd5b50565b6000815190506200025f8162000234565b92915050565b6000602082840312156200027e576200027d620001e7565b5b60006200028e848285016200024e565b91505092915050565b600067ffffffffffffffff82169050919050565b620002b68162000297565b82525050565b6000602082019050620002d36000830184620002ab565b92915050565b60805160a05161202262000314600039600081816104d30152610d91015260008181610a5b01528181610ab00152610c6b01526120226000f3fe6080604052600436106100c65760003560e01c80638da5cb5b1161007f578063c4d66de811610059578063c4d66de814610254578063c71daccb1461027d578063d087d288146102a8578063faec4db4146102d3576100cd565b80638da5cb5b146101d3578063ad3cb1cc146101fe578063b0d691fe14610229576100cd565b80631256fa53146100d257806319822f7c146100fd578063290bb4531461013a5780632ccb1b30146101635780634f1ef2861461018c57806352d1902d146101a8576100cd565b366100cd57005b600080fd5b3480156100de57600080fd5b506100e76102fc565b6040516100f491906114fc565b60405180910390f35b34801561010957600080fd5b50610124600480360381019061011f91906115bc565b610304565b604051610131919061163a565b60405180910390f35b34801561014657600080fd5b50610161600480360381019061015c919061179b565b610337565b005b34801561016f57600080fd5b5061018a60048036038101906101859190611810565b61036f565b005b6101a660048036038101906101a191906118f1565b610420565b005b3480156101b457600080fd5b506101bd61043f565b6040516101ca919061195c565b60405180910390f35b3480156101df57600080fd5b506101e8610472565b6040516101f591906114fc565b60405180910390f35b34801561020a57600080fd5b50610213610496565b60405161022091906119f6565b60405180910390f35b34801561023557600080fd5b5061023e6104cf565b60405161024b9190611a77565b60405180910390f35b34801561026057600080fd5b5061027b60048036038101906102769190611a92565b6104f7565b005b34801561028957600080fd5b50610292610686565b60405161029f919061163a565b60405180910390f35b3480156102b457600080fd5b506102bd61068e565b6040516102ca919061163a565b60405180910390f35b3480156102df57600080fd5b506102fa60048036038101906102f5919061179b565b610719565b005b600030905090565b600061030e6107aa565b6103188484610821565b905061032784602001356108f4565b610330826108f7565b9392505050565b61033f610993565b8060405160200161035091906119f6565b6040516020818303038152906040528051906020012060018190555050565b60008273ffffffffffffffffffffffffffffffffffffffff168260405161039590611af0565b60006040518083038185875af1925050503d80600081146103d2576040519150601f19603f3d011682016040523d82523d6000602084013e6103d7565b606091505b505090508061041b576040517f08c379a000000000000000000000000000000000000000000000000000000000815260040161041290611b51565b60405180910390fd5b505050565b610428610a59565b61043182610b3f565b61043b8282610b4a565b5050565b6000610449610c69565b7f360894a13ba1a3210667c828492db98dca3e2076cc3735a920a3ca505d382bbc60001b905090565b60008054906101000a900473ffffffffffffffffffffffffffffffffffffffff1681565b6040518060400160405280600581526020017f352e302e3000000000000000000000000000000000000000000000000000000081525081565b60007f0000000000000000000000000000000000000000000000000000000000000000905090565b6000610501610cf0565b905060008160000160089054906101000a900460ff1615905060008260000160009054906101000a900467ffffffffffffffff1690506000808267ffffffffffffffff1614801561054f5750825b9050600060018367ffffffffffffffff16148015610584575060003073ffffffffffffffffffffffffffffffffffffffff163b145b905081158015610592575080155b156105c9576040517ff92ee8a900000000000000000000000000000000000000000000000000000000815260040160405180910390fd5b60018560000160006101000a81548167ffffffffffffffff021916908367ffffffffffffffff16021790555083156106195760018560000160086101000a81548160ff0219169083151502179055505b61062286610d18565b831561067e5760008560000160086101000a81548160ff0219169083151502179055507fc7f505b2f371ae2175ee4913f4499e1f2633a7b5936321eed1cdaeb6115181d260016040516106759190611bc0565b60405180910390a15b505050505050565b600047905090565b60006106986104cf565b73ffffffffffffffffffffffffffffffffffffffff166335567e1a3060006040518363ffffffff1660e01b81526004016106d3929190611c3a565b602060405180830381865afa1580156106f0573d6000803e3d6000fd5b505050506040513d601f19601f820116820180604052508101906107149190611c78565b905090565b600061072482610df5565b905080610766576040517f08c379a000000000000000000000000000000000000000000000000000000000815260040161075d90611cf1565b60405180910390fd5b336000806101000a81548173ffffffffffffffffffffffffffffffffffffffff021916908373ffffffffffffffffffffffffffffffffffffffff1602179055505050565b6107b26104cf565b73ffffffffffffffffffffffffffffffffffffffff163373ffffffffffffffffffffffffffffffffffffffff161461081f576040517f08c379a000000000000000000000000000000000000000000000000000000000815260040161081690611d5d565b60405180910390fd5b565b60008061082d83610e6f565b905061088c81858061010001906108449190611d8c565b8080601f016020809104026020016040519081016040528093929190818152602001838380828437600081840152601f19601f82011690508083019250505050505050610ea5565b73ffffffffffffffffffffffffffffffffffffffff1660008054906101000a900473ffffffffffffffffffffffffffffffffffffffff1673ffffffffffffffffffffffffffffffffffffffff16146108e85760019150506108ee565b60009150505b92915050565b50565b600081146109905760003373ffffffffffffffffffffffffffffffffffffffff16827fffffffffffffffffffffffffffffffffffffffffffffffffffffffffffffffff9060405161094790611af0565b600060405180830381858888f193505050503d8060008114610985576040519150601f19603f3d011682016040523d82523d6000602084013e61098a565b606091505b50509050505b50565b60008054906101000a900473ffffffffffffffffffffffffffffffffffffffff1673ffffffffffffffffffffffffffffffffffffffff163373ffffffffffffffffffffffffffffffffffffffff161480610a1857503073ffffffffffffffffffffffffffffffffffffffff163373ffffffffffffffffffffffffffffffffffffffff16145b610a57576040517f08c379a0000000000000000000000000000000000000000000000000000000008152600401610a4e90611e3b565b60405180910390fd5b565b7f000000000000000000000000000000000000000000000000000000000000000073ffffffffffffffffffffffffffffffffffffffff163073ffffffffffffffffffffffffffffffffffffffff161480610b0657507f000000000000000000000000000000000000000000000000000000000000000073ffffffffffffffffffffffffffffffffffffffff16610aed610ed1565b73ffffffffffffffffffffffffffffffffffffffff1614155b15610b3d576040517fe07c8dba00000000000000000000000000000000000000000000000000000000815260040160405180910390fd5b565b610b47610993565b50565b8173ffffffffffffffffffffffffffffffffffffffff166352d1902d6040518163ffffffff1660e01b8152600401602060405180830381865afa925050508015610bb257506040513d601f19601f82011682018060405250810190610baf9190611e70565b60015b610bf357816040517f4c9c8ce3000000000000000000000000000000000000000000000000000000008152600401610bea91906114fc565b60405180910390fd5b7f360894a13ba1a3210667c828492db98dca3e2076cc3735a920a3ca505d382bbc60001b8114610c5a57806040517faa1d49a4000000000000000000000000000000000000000000000000000000008152600401610c51919061195c565b60405180910390fd5b610c648383610f28565b505050565b7f000000000000000000000000000000000000000000000000000000000000000073ffffffffffffffffffffffffffffffffffffffff163073ffffffffffffffffffffffffffffffffffffffff1614610cee576040517fe07c8dba00000000000000000000000000000000000000000000000000000000815260040160405180910390fd5b565b60007ff0c57e16840df040f15088dc2f81fe391c3923bec73e23a9662efc9c229c6a00905090565b806000806101000a81548173ffffffffffffffffffffffffffffffffffffffff021916908373ffffffffffffffffffffffffffffffffffffffff16021790555060008054906101000a900473ffffffffffffffffffffffffffffffffffffffff1673ffffffffffffffffffffffffffffffffffffffff167f000000000000000000000000000000000000000000000000000000000000000073ffffffffffffffffffffffffffffffffffffffff167f47e55c76e7a6f1fd8996a1da8008c1ea29699cca35e7bcd057f2dec313b6e5de60405160405180910390a350565b60008082604051602001610e0991906119f6565b6040516020818303038152906040528051906020012090506001548114610e65576040517f08c379a0000000000000000000000000000000000000000000000000000000008152600401610e5c90611ee9565b60405180910390fd5b6001915050919050565b60007f19457468657265756d205369676e6564204d6573736167653a0a33320000000060005281601c52603c6000209050919050565b600080600080610eb58686610f9b565b925092509250610ec58282610ff7565b82935050505092915050565b6000610eff7f360894a13ba1a3210667c828492db98dca3e2076cc3735a920a3ca505d382bbc60001b61115b565b60000160009054906101000a900473ffffffffffffffffffffffffffffffffffffffff16905090565b610f3182611165565b8173ffffffffffffffffffffffffffffffffffffffff167fbc7cd75a20ee27fd9adebab32041f755214dbc6bffa90cc0225b39da2e5c2d3b60405160405180910390a2600081511115610f8e57610f888282611232565b50610f97565b610f966112b6565b5b5050565b60008060006041845103610fe05760008060006020870151925060408701519150606087015160001a9050610fd2888285856112f3565b955095509550505050610ff0565b60006002855160001b9250925092505b9250925092565b6000600381111561100b5761100a611f09565b5b82600381111561101e5761101d611f09565b5b0315611157576001600381111561103857611037611f09565b5b82600381111561104b5761104a611f09565b5b03611082576040517ff645eedf00000000000000000000000000000000000000000000000000000000815260040160405180910390fd5b6002600381111561109657611095611f09565b5b8260038111156110a9576110a8611f09565b5b036110ee578060001c6040517ffce698f70000000000000000000000000000000000000000000000000000000081526004016110e5919061163a565b60405180910390fd5b60038081111561110157611100611f09565b5b82600381111561111457611113611f09565b5b0361115657806040517fd78bce0c00000000000000000000000000000000000000000000000000000000815260040161114d919061195c565b60405180910390fd5b5b5050565b6000819050919050565b60008173ffffffffffffffffffffffffffffffffffffffff163b036111c157806040517f4c9c8ce30000000000000000000000000000000000000000000000000000000081526004016111b891906114fc565b60405180910390fd5b806111ee7f360894a13ba1a3210667c828492db98dca3e2076cc3735a920a3ca505d382bbc60001b61115b565b60000160006101000a81548173ffffffffffffffffffffffffffffffffffffffff021916908373ffffffffffffffffffffffffffffffffffffffff16021790555050565b60606000808473ffffffffffffffffffffffffffffffffffffffff168460405161125c9190611f74565b600060405180830381855af49150503d8060008114611297576040519150601f19603f3d011682016040523d82523d6000602084013e61129c565b606091505b50915091506112ac8583836113e7565b9250505092915050565b60003411156112f1576040517fb398979f00000000000000000000000000000000000000000000000000000000815260040160405180910390fd5b565b60008060007f7fffffffffffffffffffffffffffffff5d576e7357a4501ddfe92f46681b20a08460001c11156113335760006003859250925092506113dd565b6000600188888888604051600081526020016040526040516113589493929190611fa7565b6020604051602081039080840390855afa15801561137a573d6000803e3d6000fd5b505050602060405103519050600073ffffffffffffffffffffffffffffffffffffffff168173ffffffffffffffffffffffffffffffffffffffff16036113ce57600060016000801b935093509350506113dd565b8060008060001b935093509350505b9450945094915050565b6060826113fc576113f782611476565b61146e565b60008251148015611424575060008473ffffffffffffffffffffffffffffffffffffffff163b145b1561146657836040517f9996b31500000000000000000000000000000000000000000000000000000000815260040161145d91906114fc565b60405180910390fd5b81905061146f565b5b9392505050565b6000815111156114895780518082602001fd5b6040517f1425ea4200000000000000000000000000000000000000000000000000000000815260040160405180910390fd5b600073ffffffffffffffffffffffffffffffffffffffff82169050919050565b60006114e6826114bb565b9050919050565b6114f6816114db565b82525050565b600060208201905061151160008301846114ed565b92915050565b6000604051905090565b600080fd5b600080fd5b600080fd5b600061012082840312156115475761154661152b565b5b81905092915050565b6000819050919050565b61156381611550565b811461156e57600080fd5b50565b6000813590506115808161155a565b92915050565b6000819050919050565b61159981611586565b81146115a457600080fd5b50565b6000813590506115b681611590565b92915050565b6000806000606084860312156115d5576115d4611521565b5b600084013567ffffffffffffffff8111156115f3576115f2611526565b5b6115ff86828701611530565b935050602061161086828701611571565b9250506040611621868287016115a7565b9150509250925092565b61163481611586565b82525050565b600060208201905061164f600083018461162b565b92915050565b600080fd5b600080fd5b6000601f19601f8301169050919050565b7f4e487b7100000000000000000000000000000000000000000000000000000000600052604160045260246000fd5b6116a88261165f565b810181811067ffffffffffffffff821117156116c7576116c6611670565b5b80604052505050565b60006116da611517565b90506116e6828261169f565b919050565b600067ffffffffffffffff82111561170657611705611670565b5b61170f8261165f565b9050602081019050919050565b82818337600083830152505050565b600061173e611739846116eb565b6116d0565b90508281526020810184848401111561175a5761175961165a565b5b61176584828561171c565b509392505050565b600082601f83011261178257611781611655565b5b813561179284826020860161172b565b91505092915050565b6000602082840312156117b1576117b0611521565b5b600082013567ffffffffffffffff8111156117cf576117ce611526565b5b6117db8482850161176d565b91505092915050565b6117ed816114db565b81146117f857600080fd5b50565b60008135905061180a816117e4565b92915050565b6000806040838503121561182757611826611521565b5b6000611835858286016117fb565b9250506020611846858286016115a7565b9150509250929050565b600067ffffffffffffffff82111561186b5761186a611670565b5b6118748261165f565b9050602081019050919050565b600061189461188f84611850565b6116d0565b9050828152602081018484840111156118b0576118af61165a565b5b6118bb84828561171c565b509392505050565b600082601f8301126118d8576118d7611655565b5b81356118e8848260208601611881565b91505092915050565b6000806040838503121561190857611907611521565b5b6000611916858286016117fb565b925050602083013567ffffffffffffffff81111561193757611936611526565b5b611943858286016118c3565b9150509250929050565b61195681611550565b82525050565b6000602082019050611971600083018461194d565b92915050565b600081519050919050565b600082825260208201905092915050565b60005b838110156119b1578082015181840152602081019050611996565b60008484015250505050565b60006119c882611977565b6119d28185611982565b93506119e2818560208601611993565b6119eb8161165f565b840191505092915050565b60006020820190508181036000830152611a1081846119bd565b905092915050565b6000819050919050565b6000611a3d611a38611a33846114bb565b611a18565b6114bb565b9050919050565b6000611a4f82611a22565b9050919050565b6000611a6182611a44565b9050919050565b611a7181611a56565b82525050565b6000602082019050611a8c6000830184611a68565b92915050565b600060208284031215611aa857611aa7611521565b5b6000611ab6848285016117fb565b91505092915050565b600081905092915050565b50565b6000611ada600083611abf565b9150611ae582611aca565b600082019050919050565b6000611afb82611acd565b9150819050919050565b7f5472616e7366657220756e7375636365737366756c6c00000000000000000000600082015250565b6000611b3b601683611982565b9150611b4682611b05565b602082019050919050565b60006020820190508181036000830152611b6a81611b2e565b9050919050565b6000819050919050565b600067ffffffffffffffff82169050919050565b6000611baa611ba5611ba084611b71565b611a18565b611b7b565b9050919050565b611bba81611b8f565b82525050565b6000602082019050611bd56000830184611bb1565b92915050565b6000819050919050565b600077ffffffffffffffffffffffffffffffffffffffffffffffff82169050919050565b6000611c24611c1f611c1a84611bdb565b611a18565b611be5565b9050919050565b611c3481611c09565b82525050565b6000604082019050611c4f60008301856114ed565b611c5c6020830184611c2b565b9392505050565b600081519050611c7281611590565b92915050565b600060208284031215611c8e57611c8d611521565b5b6000611c9c84828501611c63565b91505092915050565b7f596f7520617265206e6f7420617574686f72697a656400000000000000000000600082015250565b6000611cdb601683611982565b9150611ce682611ca5565b602082019050919050565b60006020820190508181036000830152611d0a81611cce565b9050919050565b7f6163636f756e743a206e6f742066726f6d20456e747279506f696e7400000000600082015250565b6000611d47601c83611982565b9150611d5282611d11565b602082019050919050565b60006020820190508181036000830152611d7681611d3a565b9050919050565b600080fd5b600080fd5b600080fd5b60008083356001602003843603038112611da957611da8611d7d565b5b80840192508235915067ffffffffffffffff821115611dcb57611dca611d82565b5b602083019250600182023603831315611de757611de6611d87565b5b509250929050565b7f6f6e6c79206f776e657200000000000000000000000000000000000000000000600082015250565b6000611e25600a83611982565b9150611e3082611def565b602082019050919050565b60006020820190508181036000830152611e5481611e18565b9050919050565b600081519050611e6a8161155a565b92915050565b600060208284031215611e8657611e85611521565b5b6000611e9484828501611e5b565b91505092915050565b7f596f7520617265206e6f7420746865206f776e65720000000000000000000000600082015250565b6000611ed3601583611982565b9150611ede82611e9d565b602082019050919050565b60006020820190508181036000830152611f0281611ec6565b9050919050565b7f4e487b7100000000000000000000000000000000000000000000000000000000600052602160045260246000fd5b600081519050919050565b6000611f4e82611f38565b611f588185611abf565b9350611f68818560208601611993565b80840191505092915050565b6000611f808284611f43565b915081905092915050565b600060ff82169050919050565b611fa181611f8b565b82525050565b6000608082019050611fbc600083018761194d565b611fc96020830186611f98565b611fd6604083018561194d565b611fe3606083018461194d565b9594505050505056fea264697066735822122098709a8e0915204d1ca3028fe9038836f4161e75731bb0fef5865ddeeb486ca664736f6c63430008180033",
  "linkReferences": {},
  "deployedLinkReferences": {}
}